{"abi":[{"type":"constructor","inputs":[{"name":"name","type":"string","internalType":"string"},{"name":"symbol","type":"string","internalType":"string"}],"stateMutability":"nonpayable"},{"type":"function","name":"TOTAL_SUPPLY","inputs":[],"outputs":[{"name":"","type":"uint256","internalType":"uint256"}],"stateMutability":"view"},{"type":"function","name":"allowance","inputs":[{"name":"owner","type":"address","internalType":"address"},{"name":"spender","type":"address","internalType":"address"}],"outputs":[{"name":"","type":"uint256","internalType":"uint256"}],"stateMutability":"view"},{"type":"function","name":"approve","inputs":[{"name":"spender","type":"address","internalType":"address"},{"name":"value","type":"uint256","internalType":"uint256"}],"outputs":[{"name":"","type":"bool","internalType":"bool"}],"stateMutability":"nonpayable"},{"type":"function","name":"balanceOf","inputs":[{"name":"account","type":"address","internalType":"address"}],"outputs":[{"name":"","type":"uint256","internalType":"uint256"}],"stateMutability":"view"},{"type":"function","name":"decimals","inputs":[],"outputs":[{"name":"","type":"uint8","internalType":"uint8"}],"stateMutability":"view"},{"type":"function","name":"name","inputs":[],"outputs":[{"name":"","type":"string","internalType":"string"}],"stateMutability":"view"},{"type":"function","name":"owner","inputs":[],"outputs":[{"name":"","type":"address","internalType":"address"}],"stateMutability":"view"},{"type":"function","name":"renounceOwnership","inputs":[],"outputs":[],"stateMutability":"nonpayable"},{"type":"function","name":"symbol","inputs":[],"outputs":[{"name":"","type":"string","internalType":"string"}],"stateMutability":"view"},{"type":"function","name":"totalSupply","inputs":[],"outputs":[{"name":"","type":"uint256","internalType":"uint256"}],"stateMutability":"view"},{"type":"function","name":"transfer","inputs":[{"name":"to","type":"address","internalType":"address"},{"name":"value","type":"uint256","internalType":"uint256"}],"outputs":[{"name":"","type":"bool","internalType":"bool"}],"stateMutability":"nonpayable"},{"type":"function","name":"transferFrom","inputs":[{"name":"from","type":"address","internalType":"address"},{"name":"to","type":"address","internalType":"address"},{"name":"value","type":"uint256","internalType":"uint256"}],"outputs":[{"name":"","type":"bool","internalType":"bool"}],"stateMutability":"nonpayable"},{"type":"function","name":"transferOwnership","inputs":[{"name":"newOwner","type":"address","internalType":"address"}],"outputs":[],"stateMutability":"nonpayable"},{"type":"event","name":"Approval","inputs":[{"name":"owner","type":"address","indexed":true,"internalType":"address"},{"name":"spender","type":"address","indexed":true,"internalType":"address"},{"name":"value","type":"uint256","indexed":false,"internalType":"uint256"}],"anonymous":false},{"type":"event","name":"OwnershipTransferred","inputs":[{"name":"previousOwner","type":"address","indexed":true,"internalType":"address"},{"name":"newOwner","type":"address","indexed":true,"internalType":"address"}],"anonymous":false},{"type":"event","name":"Transfer","inputs":[{"name":"from","type":"address","indexed":true,"internalType":"address"},{"name":"to","type":"address","indexed":true,"internalType":"address"},{"name":"value","type":"uint256","indexed":false,"internalType":"uint256"}],"anonymous":false},{"type":"error","name":"ERC20InsufficientAllowance","inputs":[{"name":"spender","type":"address","internalType":"address"},{"name":"allowance","type":"uint256","internalType":"uint256"},{"name":"needed","type":"uint256","internalType":"uint256"}]},{"type":"error","name":"ERC20InsufficientBalance","inputs":[{"name":"sender","type":"address","internalType":"address"},{"name":"balance","type":"uint256","internalType":"uint256"},{"name":"needed","type":"uint256","internalType":"uint256"}]},{"type":"error","name":"ERC20InvalidApprover","inputs":[{"name":"approver","type":"address","internalType":"address"}]},{"type":"error","name":"ERC20InvalidReceiver","inputs":[{"name":"receiver","type":"address","internalType":"address"}]},{"type":"error","name":"ERC20InvalidSender","inputs":[{"name":"sender","type":"address","internalType":"address"}]},{"type":"error","name":"ERC20InvalidSpender","inputs":[{"name":"spender","type":"address","internalType":"address"}]},{"type":"error","name":"OwnableInvalidOwner","inputs":[{"name":"owner","type":"address","internalType":"address"}]},{"type":"error","name":"OwnableUnauthorizedAccount","inputs":[{"name":"account","type":"address","internalType":"address"}]}],"bytecode":{"object":"0x608060405234801561000f575f5ffd5b50604051610cf9380380610cf983398101604081905261002e916102ed565b338282600361003d83826103d6565b50600461004a82826103d6565b5050506001600160a01b03811661007b57604051631e4fbdf760e01b81525f60048201526024015b60405180910390fd5b610084816100a1565b5061009a336a084595161401484a0000006100f2565b50506104b5565b600580546001600160a01b038381166001600160a01b0319831681179093556040519116919082907f8be0079c531659141344cd1fd0a4f28419497f9722a3daafe3b4186f6b6457e0905f90a35050565b6001600160a01b03821661011b5760405163ec442f0560e01b81525f6004820152602401610072565b6101265f838361012a565b5050565b6001600160a01b038316610154578060025f8282546101499190610490565b909155506101c49050565b6001600160a01b0383165f90815260208190526040902054818110156101a65760405163391434e360e21b81526001600160a01b03851660048201526024810182905260448101839052606401610072565b6001600160a01b0384165f9081526020819052604090209082900390555b6001600160a01b0382166101e0576002805482900390556101fe565b6001600160a01b0382165f9081526020819052604090208054820190555b816001600160a01b0316836001600160a01b03167fddf252ad1be2c89b69c2b068fc378daa952ba7f163c4a11628f55a4df523b3ef8360405161024391815260200190565b60405180910390a3505050565b634e487b7160e01b5f52604160045260245ffd5b5f82601f830112610273575f5ffd5b81516001600160401b0381111561028c5761028c610250565b604051601f8201601f19908116603f011681016001600160401b03811182821017156102ba576102ba610250565b6040528181528382016020018510156102d1575f5ffd5b8160208501602083015e5f918101602001919091529392505050565b5f5f604083850312156102fe575f5ffd5b82516001600160401b03811115610313575f5ffd5b61031f85828601610264565b602085015190935090506001600160401b0381111561033c575f5ffd5b61034885828601610264565b9150509250929050565b600181811c9082168061036657607f821691505b60208210810361038457634e487b7160e01b5f52602260045260245ffd5b50919050565b601f8211156103d157805f5260205f20601f840160051c810160208510156103af5750805b601f840160051c820191505b818110156103ce575f81556001016103bb565b50505b505050565b81516001600160401b038111156103ef576103ef610250565b610403816103fd8454610352565b8461038a565b6020601f821160018114610435575f831561041e5750848201515b5f19600385901b1c1916600184901b1784556103ce565b5f84815260208120601f198516915b828110156104645787850151825560209485019460019092019101610444565b508482101561048157868401515f19600387901b60f8161c191681555b50505050600190811b01905550565b808201808211156104af57634e487b7160e01b5f52601160045260245ffd5b92915050565b610837806104c25f395ff3fe608060405234801561000f575f5ffd5b50600436106100cb575f3560e01c8063715018a61161008857806395d89b411161006357806395d89b41146101a3578063a9059cbb146101ab578063dd62ed3e146101be578063f2fde38b146101f6575f5ffd5b8063715018a61461016c5780638da5cb5b14610176578063902d55a514610191575f5ffd5b806306fdde03146100cf578063095ea7b3146100ed57806318160ddd1461011057806323b872dd14610122578063313ce5671461013557806370a0823114610144575b5f5ffd5b6100d7610209565b6040516100e491906106a7565b60405180910390f35b6101006100fb3660046106f7565b610299565b60405190151581526020016100e4565b6002545b6040519081526020016100e4565b61010061013036600461071f565b6102b2565b604051601281526020016100e4565b610114610152366004610759565b6001600160a01b03165f9081526020819052604090205490565b6101746102d5565b005b6005546040516001600160a01b0390911681526020016100e4565b6101146a084595161401484a00000081565b6100d76102e8565b6101006101b93660046106f7565b6102f7565b6101146101cc366004610779565b6001600160a01b039182165f90815260016020908152604080832093909416825291909152205490565b610174610204366004610759565b610304565b606060038054610218906107aa565b80601f0160208091040260200160405190810160405280929190818152602001828054610244906107aa565b801561028f5780601f106102665761010080835404028352916020019161028f565b820191905f5260205f20905b81548152906001019060200180831161027257829003601f168201915b5050505050905090565b5f336102a6818585610346565b60019150505b92915050565b5f336102bf858285610358565b6102ca8585856103d4565b506001949350505050565b6102dd610431565b6102e65f61045e565b565b606060048054610218906107aa565b5f336102a68185856103d4565b61030c610431565b6001600160a01b03811661033a57604051631e4fbdf760e01b81525f60048201526024015b60405180910390fd5b6103438161045e565b50565b61035383838360016104af565b505050565b6001600160a01b038381165f908152600160209081526040808320938616835292905220545f198110156103ce57818110156103c057604051637dc7a0d960e11b81526001600160a01b03841660048201526024810182905260448101839052606401610331565b6103ce84848484035f6104af565b50505050565b6001600160a01b0383166103fd57604051634b637e8f60e11b81525f6004820152602401610331565b6001600160a01b0382166104265760405163ec442f0560e01b81525f6004820152602401610331565b610353838383610581565b6005546001600160a01b031633146102e65760405163118cdaa760e01b8152336004820152602401610331565b600580546001600160a01b038381166001600160a01b0319831681179093556040519116919082907f8be0079c531659141344cd1fd0a4f28419497f9722a3daafe3b4186f6b6457e0905f90a35050565b6001600160a01b0384166104d85760405163e602df0560e01b81525f6004820152602401610331565b6001600160a01b03831661050157604051634a1406b160e11b81525f6004820152602401610331565b6001600160a01b038085165f90815260016020908152604080832093871683529290522082905580156103ce57826001600160a01b0316846001600160a01b03167f8c5be1e5ebec7d5bd14f71427d1e84f3dd0314c0f7b2291e5b200ac8c7c3b9258460405161057391815260200190565b60405180910390a350505050565b6001600160a01b0383166105ab578060025f8282546105a091906107e2565b9091555061061b9050565b6001600160a01b0383165f90815260208190526040902054818110156105fd5760405163391434e360e21b81526001600160a01b03851660048201526024810182905260448101839052606401610331565b6001600160a01b0384165f9081526020819052604090209082900390555b6001600160a01b03821661063757600280548290039055610655565b6001600160a01b0382165f9081526020819052604090208054820190555b816001600160a01b0316836001600160a01b03167fddf252ad1be2c89b69c2b068fc378daa952ba7f163c4a11628f55a4df523b3ef8360405161069a91815260200190565b60405180910390a3505050565b602081525f82518060208401528060208501604085015e5f604082850101526040601f19601f83011684010191505092915050565b80356001600160a01b03811681146106f2575f5ffd5b919050565b5f5f60408385031215610708575f5ffd5b610711836106dc565b946020939093013593505050565b5f5f5f60608486031215610731575f5ffd5b61073a846106dc565b9250610748602085016106dc565b929592945050506040919091013590565b5f60208284031215610769575f5ffd5b610772826106dc565b9392505050565b5f5f6040838503121561078a575f5ffd5b610793836106dc565b91506107a1602084016106dc565b90509250929050565b600181811c908216806107be57607f821691505b6020821081036107dc57634e487b7160e01b5f52602260045260245ffd5b50919050565b808201808211156102ac57634e487b7160e01b5f52601160045260245ffdfea26469706673582212202064dbc4b020e2d490c8e16cc11f8cf205dae83be2327d0b1c56c2cdce6097e164736f6c634300081c0033","linkReferences":{}},"methodIdentifiers":{"TOTAL_SUPPLY()":"902d55a5","allowance(address,address)":"dd62ed3e","approve(address,uint256)":"095ea7b3","balanceOf(address)":"70a08231","decimals()":"313ce567","name()":"06fdde03","owner()":"8da5cb5b","renounceOwnership()":"715018a6","symbol()":"95d89b41","totalSupply()":"18160ddd","transfer(address,uint256)":"a9059cbb","transferFrom(address,address,uint256)":"23b872dd","transferOwnership(address)":"f2fde38b"},"id":28}