{"abi":[{"type":"constructor","inputs":[{"name":"name","type":"string","internalType":"string"},{"name":"symbol","type":"string","internalType":"string"}],"stateMutability":"nonpayable"},{"type":"function","name":"TOTAL_SUPPLY","inputs":[],"outputs":[{"name":"","type":"uint256","internalType":"uint256"}],"stateMutability":"view"},{"type":"function","name":"approve","inputs":[{"name":"to","type":"address","internalType":"address"},{"name":"tokenId","type":"uint256","internalType":"uint256"}],"outputs":[],"stateMutability":"nonpayable"},{"type":"function","name":"balanceOf","inputs":[{"name":"owner","type":"address","internalType":"address"}],"outputs":[{"name":"","type":"uint256","internalType":"uint256"}],"stateMutability":"view"},{"type":"function","name":"getApproved","inputs":[{"name":"tokenId","type":"uint256","internalType":"uint256"}],"outputs":[{"name":"","type":"address","internalType":"address"}],"stateMutability":"view"},{"type":"function","name":"isApprovedForAll","inputs":[{"name":"owner","type":"address","internalType":"address"},{"name":"operator","type":"address","internalType":"address"}],"outputs":[{"name":"","type":"bool","internalType":"bool"}],"stateMutability":"view"},{"type":"function","name":"name","inputs":[],"outputs":[{"name":"","type":"string","internalType":"string"}],"stateMutability":"view"},{"type":"function","name":"owner","inputs":[],"outputs":[{"name":"","type":"address","internalType":"address"}],"stateMutability":"view"},{"type":"function","name":"ownerOf","inputs":[{"name":"tokenId","type":"uint256","internalType":"uint256"}],"outputs":[{"name":"","type":"address","internalType":"address"}],"stateMutability":"view"},{"type":"function","name":"renounceOwnership","inputs":[],"outputs":[],"stateMutability":"nonpayable"},{"type":"function","name":"safeTransferFrom","inputs":[{"name":"from","type":"address","internalType":"address"},{"name":"to","type":"address","internalType":"address"},{"name":"tokenId","type":"uint256","internalType":"uint256"}],"outputs":[],"stateMutability":"nonpayable"},{"type":"function","name":"safeTransferFrom","inputs":[{"name":"from","type":"address","internalType":"address"},{"name":"to","type":"address","internalType":"address"},{"name":"tokenId","type":"uint256","internalType":"uint256"},{"name":"data","type":"bytes","internalType":"bytes"}],"outputs":[],"stateMutability":"nonpayable"},{"type":"function","name":"setApprovalForAll","inputs":[{"name":"operator","type":"address","internalType":"address"},{"name":"approved","type":"bool","internalType":"bool"}],"outputs":[],"stateMutability":"nonpayable"},{"type":"function","name":"supportsInterface","inputs":[{"name":"interfaceId","type":"bytes4","internalType":"bytes4"}],"outputs":[{"name":"","type":"bool","internalType":"bool"}],"stateMutability":"view"},{"type":"function","name":"symbol","inputs":[],"outputs":[{"name":"","type":"string","internalType":"string"}],"stateMutability":"view"},{"type":"function","name":"tokenURI","inputs":[{"name":"tokenId","type":"uint256","internalType":"uint256"}],"outputs":[{"name":"","type":"string","internalType":"string"}],"stateMutability":"view"},{"type":"function","name":"transferFrom","inputs":[{"name":"from","type":"address","internalType":"address"},{"name":"to","type":"address","internalType":"address"},{"name":"tokenId","type":"uint256","internalType":"uint256"}],"outputs":[],"stateMutability":"nonpayable"},{"type":"function","name":"transferOwnership","inputs":[{"name":"newOwner","type":"address","internalType":"address"}],"outputs":[],"stateMutability":"nonpayable"},{"type":"event","name":"Approval","inputs":[{"name":"owner","type":"address","indexed":true,"internalType":"address"},{"name":"approved","type":"address","indexed":true,"internalType":"address"},{"name":"tokenId","type":"uint256","indexed":true,"internalType":"uint256"}],"anonymous":false},{"type":"event","name":"ApprovalForAll","inputs":[{"name":"owner","type":"address","indexed":true,"internalType":"address"},{"name":"operator","type":"address","indexed":true,"internalType":"address"},{"name":"approved","type":"bool","indexed":false,"internalType":"bool"}],"anonymous":false},{"type":"event","name":"OwnershipTransferred","inputs":[{"name":"previousOwner","type":"address","indexed":true,"internalType":"address"},{"name":"newOwner","type":"address","indexed":true,"internalType":"address"}],"anonymous":false},{"type":"event","name":"Transfer","inputs":[{"name":"from","type":"address","indexed":true,"internalType":"address"},{"name":"to","type":"address","indexed":true,"internalType":"address"},{"name":"tokenId","type":"uint256","indexed":true,"internalType":"uint256"}],"anonymous":false},{"type":"error","name":"ERC721IncorrectOwner","inputs":[{"name":"sender","type":"address","internalType":"address"},{"name":"tokenId","type":"uint256","internalType":"uint256"},{"name":"owner","type":"address","internalType":"address"}]},{"type":"error","name":"ERC721InsufficientApproval","inputs":[{"name":"operator","type":"address","internalType":"address"},{"name":"tokenId","type":"uint256","internalType":"uint256"}]},{"type":"error","name":"ERC721InvalidApprover","inputs":[{"name":"approver","type":"address","internalType":"address"}]},{"type":"error","name":"ERC721InvalidOperator","inputs":[{"name":"operator","type":"address","internalType":"address"}]},{"type":"error","name":"ERC721InvalidOwner","inputs":[{"name":"owner","type":"address","internalType":"address"}]},{"type":"error","name":"ERC721InvalidReceiver","inputs":[{"name":"receiver","type":"address","internalType":"address"}]},{"type":"error","name":"ERC721InvalidSender","inputs":[{"name":"sender","type":"address","internalType":"address"}]},{"type":"error","name":"ERC721NonexistentToken","inputs":[{"name":"tokenId","type":"uint256","internalType":"uint256"}]},{"type":"error","name":"OwnableInvalidOwner","inputs":[{"name":"owner","type":"address","internalType":"address"}]},{"type":"error","name":"OwnableUnauthorizedAccount","inputs":[{"name":"account","type":"address","internalType":"address"}]}],"bytecode":{"object":"0x608060405234801561000f575f5ffd5b5060405161191838038061191883398101604081905261002e91610711565b3382825f61003c83826107f2565b50600161004982826107f2565b5050506001600160a01b03811661007a57604051631e4fbdf760e01b81525f60048201526024015b60405180910390fd5b61008381610122565b50600654600160a01b900460ff16156100de5760405162461bcd60e51b815260206004820152601f60248201527f546f6b656e73206861766520616c7265616479206265656e206d696e746564006044820152606401610071565b6006805460ff60a01b1916600160a01b17905560015b62989680811161011a576101083382610173565b80610112816108ac565b9150506100f4565b505050610958565b600680546001600160a01b038381166001600160a01b0319831681179093556040519116919082907f8be0079c531659141344cd1fd0a4f28419497f9722a3daafe3b4186f6b6457e0905f90a35050565b610192828260405180602001604052805f81525061019660201b60201c565b5050565b6101a083836101b2565b6101ad335f858585610213565b505050565b6001600160a01b0382166101db57604051633250574960e11b81525f6004820152602401610071565b5f6101e783838361033b565b90506001600160a01b038116156101ad576040516339e3563760e11b81525f6004820152602401610071565b6001600160a01b0383163b1561033457604051630a85bd0160e11b81526001600160a01b0384169063150b7a02906102559088908890879087906004016108d0565b6020604051808303815f875af192505050801561028f575060408051601f3d908101601f1916820190925261028c9181019061092a565b60015b6102f6573d8080156102bc576040519150601f19603f3d011682016040523d82523d5f602084013e6102c1565b606091505b5080515f036102ee57604051633250574960e11b81526001600160a01b0385166004820152602401610071565b805181602001fd5b6001600160e01b03198116630a85bd0160e11b1461033257604051633250574960e11b81526001600160a01b0385166004820152602401610071565b505b5050505050565b5f828152600260205260408120546001600160a01b03908116908316156103675761036781848661042d565b6001600160a01b038116156103a1576103825f858180610491565b6001600160a01b0381165f90815260036020526040902080545f190190555b6001600160a01b038516156103cf576001600160a01b0385165f908152600360205260409020805460010190555b5f8481526002602052604080822080546001600160a01b0319166001600160a01b0389811691821790925591518793918516917fddf252ad1be2c89b69c2b068fc378daa952ba7f163c4a11628f55a4df523b3ef91a4949350505050565b6104388383836105b3565b6101ad576001600160a01b03831661046657604051637e27328960e01b815260048101829052602401610071565b60405163177e802f60e01b81526001600160a01b038316600482015260248101829052604401610071565b80806104a557506001600160a01b03821615155b15610584575f6104b484610636565b90506001600160a01b038316158015906104e05750826001600160a01b0316816001600160a01b031614155b801561051157506001600160a01b038082165f9081526005602090815260408083209387168352929052205460ff16155b1561053a5760405163a9fbf51f60e01b81526001600160a01b0384166004820152602401610071565b81156105825783856001600160a01b0316826001600160a01b03167f8c5be1e5ebec7d5bd14f71427d1e84f3dd0314c0f7b2291e5b200ac8c7c3b92560405160405180910390a45b505b50505f90815260046020526040902080546001600160a01b0319166001600160a01b0392909216919091179055565b5f6001600160a01b0383161580159061062e5750826001600160a01b0316846001600160a01b0316148061060b57506001600160a01b038085165f9081526005602090815260408083209387168352929052205460ff165b8061062e57505f828152600460205260409020546001600160a01b038481169116145b949350505050565b5f818152600260205260408120546001600160a01b03168061066e57604051637e27328960e01b815260048101849052602401610071565b92915050565b634e487b7160e01b5f52604160045260245ffd5b5f82601f830112610697575f5ffd5b81516001600160401b038111156106b0576106b0610674565b604051601f8201601f19908116603f011681016001600160401b03811182821017156106de576106de610674565b6040528181528382016020018510156106f5575f5ffd5b8160208501602083015e5f918101602001919091529392505050565b5f5f60408385031215610722575f5ffd5b82516001600160401b03811115610737575f5ffd5b61074385828601610688565b602085015190935090506001600160401b03811115610760575f5ffd5b61076c85828601610688565b9150509250929050565b600181811c9082168061078a57607f821691505b6020821081036107a857634e487b7160e01b5f52602260045260245ffd5b50919050565b601f8211156101ad57805f5260205f20601f840160051c810160208510156107d35750805b601f840160051c820191505b81811015610334575f81556001016107df565b81516001600160401b0381111561080b5761080b610674565b61081f816108198454610776565b846107ae565b6020601f821160018114610851575f831561083a5750848201515b5f19600385901b1c1916600184901b178455610334565b5f84815260208120601f198516915b828110156108805787850151825560209485019460019092019101610860565b508482101561089d57868401515f19600387901b60f8161c191681555b50505050600190811b01905550565b5f600182016108c957634e487b7160e01b5f52601160045260245ffd5b5060010190565b60018060a01b038516815260018060a01b0384166020820152826040820152608060608201525f8251806080840152806020850160a085015e5f60a0828501015260a0601f19601f83011684010191505095945050505050565b5f6020828403121561093a575f5ffd5b81516001600160e01b031981168114610951575f5ffd5b9392505050565b610fb3806109655f395ff3fe608060405234801561000f575f5ffd5b5060043610610106575f3560e01c8063715018a61161009e578063a22cb4651161006e578063a22cb4651461020c578063b88d4fde1461021f578063c87b56dd14610232578063e985e9c514610245578063f2fde38b14610258575f5ffd5b8063715018a6146101e15780638da5cb5b146101e9578063902d55a5146101fa57806395d89b4114610204575f5ffd5b806323b872dd116100d957806323b872dd1461018757806342842e0e1461019a5780636352211e146101ad57806370a08231146101c0575f5ffd5b806301ffc9a71461010a57806306fdde0314610132578063081812fc14610147578063095ea7b314610172575b5f5ffd5b61011d610118366004610c60565b61026b565b60405190151581526020015b60405180910390f35b61013a6102bc565b6040516101299190610ca9565b61015a610155366004610cbb565b61034b565b6040516001600160a01b039091168152602001610129565b610185610180366004610ced565b610372565b005b610185610195366004610d15565b610381565b6101856101a8366004610d15565b61040f565b61015a6101bb366004610cbb565b61042e565b6101d36101ce366004610d4f565b610438565b604051908152602001610129565b61018561047d565b6006546001600160a01b031661015a565b6101d36298968081565b61013a610490565b61018561021a366004610d68565b61049f565b61018561022d366004610db5565b6104aa565b61013a610240366004610cbb565b6104c2565b61011d610253366004610e92565b610533565b610185610266366004610d4f565b610560565b5f6001600160e01b031982166380ac58cd60e01b148061029b57506001600160e01b03198216635b5e139f60e01b145b806102b657506301ffc9a760e01b6001600160e01b03198316145b92915050565b60605f80546102ca90610ec3565b80601f01602080910402602001604051908101604052809291908181526020018280546102f690610ec3565b80156103415780601f1061031857610100808354040283529160200191610341565b820191905f5260205f20905b81548152906001019060200180831161032457829003601f168201915b5050505050905090565b5f6103558261059d565b505f828152600460205260409020546001600160a01b03166102b6565b61037d8282336105d5565b5050565b6001600160a01b0382166103af57604051633250574960e11b81525f60048201526024015b60405180910390fd5b5f6103bb8383336105e2565b9050836001600160a01b0316816001600160a01b031614610409576040516364283d7b60e01b81526001600160a01b03808616600483015260248201849052821660448201526064016103a6565b50505050565b61042983838360405180602001604052805f8152506104aa565b505050565b5f6102b68261059d565b5f6001600160a01b038216610462576040516322718ad960e21b81525f60048201526024016103a6565b506001600160a01b03165f9081526003602052604090205490565b6104856106d4565b61048e5f610701565b565b6060600180546102ca90610ec3565b61037d338383610752565b6104b5848484610381565b61040933858585856107f0565b60606104cd8261059d565b505f6104e360408051602081019091525f815290565b90505f8151116105015760405180602001604052805f81525061052c565b8061050b84610918565b60405160200161051c929190610f12565b6040516020818303038152906040525b9392505050565b6001600160a01b039182165f90815260056020908152604080832093909416825291909152205460ff1690565b6105686106d4565b6001600160a01b03811661059157604051631e4fbdf760e01b81525f60048201526024016103a6565b61059a81610701565b50565b5f818152600260205260408120546001600160a01b0316806102b657604051637e27328960e01b8152600481018490526024016103a6565b61042983838360016109a8565b5f828152600260205260408120546001600160a01b039081169083161561060e5761060e818486610aac565b6001600160a01b03811615610648576106295f855f5f6109a8565b6001600160a01b0381165f90815260036020526040902080545f190190555b6001600160a01b03851615610676576001600160a01b0385165f908152600360205260409020805460010190555b5f8481526002602052604080822080546001600160a01b0319166001600160a01b0389811691821790925591518793918516917fddf252ad1be2c89b69c2b068fc378daa952ba7f163c4a11628f55a4df523b3ef91a4949350505050565b6006546001600160a01b0316331461048e5760405163118cdaa760e01b81523360048201526024016103a6565b600680546001600160a01b038381166001600160a01b0319831681179093556040519116919082907f8be0079c531659141344cd1fd0a4f28419497f9722a3daafe3b4186f6b6457e0905f90a35050565b6001600160a01b03821661078457604051630b61174360e31b81526001600160a01b03831660048201526024016103a6565b6001600160a01b038381165f81815260056020908152604080832094871680845294825291829020805460ff191686151590811790915591519182527f17307eab39ab6107e8899845ad3d59bd9653f200f220920489ca2b5937696c31910160405180910390a3505050565b6001600160a01b0383163b1561091157604051630a85bd0160e11b81526001600160a01b0384169063150b7a0290610832908890889087908790600401610f26565b6020604051808303815f875af192505050801561086c575060408051601f3d908101601f1916820190925261086991810190610f62565b60015b6108d3573d808015610899576040519150601f19603f3d011682016040523d82523d5f602084013e61089e565b606091505b5080515f036108cb57604051633250574960e11b81526001600160a01b03851660048201526024016103a6565b805181602001fd5b6001600160e01b03198116630a85bd0160e11b1461090f57604051633250574960e11b81526001600160a01b03851660048201526024016103a6565b505b5050505050565b60605f61092483610b10565b60010190505f8167ffffffffffffffff81111561094357610943610da1565b6040519080825280601f01601f19166020018201604052801561096d576020820181803683370190505b5090508181016020015b5f19016f181899199a1a9b1b9c1cb0b131b232b360811b600a86061a8153600a850494508461097757509392505050565b80806109bc57506001600160a01b03821615155b15610a7d575f6109cb8461059d565b90506001600160a01b038316158015906109f75750826001600160a01b0316816001600160a01b031614155b8015610a0a5750610a088184610533565b155b15610a335760405163a9fbf51f60e01b81526001600160a01b03841660048201526024016103a6565b8115610a7b5783856001600160a01b0316826001600160a01b03167f8c5be1e5ebec7d5bd14f71427d1e84f3dd0314c0f7b2291e5b200ac8c7c3b92560405160405180910390a45b505b50505f90815260046020526040902080546001600160a01b0319166001600160a01b0392909216919091179055565b610ab7838383610be7565b610429576001600160a01b038316610ae557604051637e27328960e01b8152600481018290526024016103a6565b60405163177e802f60e01b81526001600160a01b0383166004820152602481018290526044016103a6565b5f8072184f03e93ff9f4daa797ed6e38ed64bf6a1f0160401b8310610b4e5772184f03e93ff9f4daa797ed6e38ed64bf6a1f0160401b830492506040015b6d04ee2d6d415b85acef81000000008310610b7a576d04ee2d6d415b85acef8100000000830492506020015b662386f26fc100008310610b9857662386f26fc10000830492506010015b6305f5e1008310610bb0576305f5e100830492506008015b6127108310610bc457612710830492506004015b60648310610bd6576064830492506002015b600a83106102b65760010192915050565b5f6001600160a01b03831615801590610c435750826001600160a01b0316846001600160a01b03161480610c205750610c208484610533565b80610c4357505f828152600460205260409020546001600160a01b038481169116145b949350505050565b6001600160e01b03198116811461059a575f5ffd5b5f60208284031215610c70575f5ffd5b813561052c81610c4b565b5f81518084528060208401602086015e5f602082860101526020601f19601f83011685010191505092915050565b602081525f61052c6020830184610c7b565b5f60208284031215610ccb575f5ffd5b5035919050565b80356001600160a01b0381168114610ce8575f5ffd5b919050565b5f5f60408385031215610cfe575f5ffd5b610d0783610cd2565b946020939093013593505050565b5f5f5f60608486031215610d27575f5ffd5b610d3084610cd2565b9250610d3e60208501610cd2565b929592945050506040919091013590565b5f60208284031215610d5f575f5ffd5b61052c82610cd2565b5f5f60408385031215610d79575f5ffd5b610d8283610cd2565b915060208301358015158114610d96575f5ffd5b809150509250929050565b634e487b7160e01b5f52604160045260245ffd5b5f5f5f5f60808587031215610dc8575f5ffd5b610dd185610cd2565b9350610ddf60208601610cd2565b925060408501359150606085013567ffffffffffffffff811115610e01575f5ffd5b8501601f81018713610e11575f5ffd5b803567ffffffffffffffff811115610e2b57610e2b610da1565b604051601f8201601f19908116603f0116810167ffffffffffffffff81118282101715610e5a57610e5a610da1565b604052818152828201602001891015610e71575f5ffd5b816020840160208301375f6020838301015280935050505092959194509250565b5f5f60408385031215610ea3575f5ffd5b610eac83610cd2565b9150610eba60208401610cd2565b90509250929050565b600181811c90821680610ed757607f821691505b602082108103610ef557634e487b7160e01b5f52602260045260245ffd5b50919050565b5f81518060208401855e5f93019283525090919050565b5f610c43610f208386610efb565b84610efb565b6001600160a01b03858116825284166020820152604081018390526080606082018190525f90610f5890830184610c7b565b9695505050505050565b5f60208284031215610f72575f5ffd5b815161052c81610c4b56fea2646970667358221220ae3810c037c8131ca21cb9b468bbeaf6559efb5e9b841c8bb1b04c6b91715a6164736f6c634300081c0033","linkReferences":{}},"methodIdentifiers":{"TOTAL_SUPPLY()":"902d55a5","approve(address,uint256)":"095ea7b3","balanceOf(address)":"70a08231","getApproved(uint256)":"081812fc","isApprovedForAll(address,address)":"e985e9c5","name()":"06fdde03","owner()":"8da5cb5b","ownerOf(uint256)":"6352211e","renounceOwnership()":"715018a6","safeTransferFrom(address,address,uint256)":"42842e0e","safeTransferFrom(address,address,uint256,bytes)":"b88d4fde","setApprovalForAll(address,bool)":"a22cb465","supportsInterface(bytes4)":"01ffc9a7","symbol()":"95d89b41","tokenURI(uint256)":"c87b56dd","transferFrom(address,address,uint256)":"23b872dd","transferOwnership(address)":"f2fde38b"},"id":15}